{
  "address": "0x7366801BF73a4B80fED0686E43abaB2762f95e81",
  "abi": [
    {
      "inputs": [
        {
          "internalType": "address",
          "name": "exampleExternalContractAddress",
          "type": "address"
        }
      ],
      "stateMutability": "nonpayable",
      "type": "constructor"
    },
    {
      "anonymous": false,
      "inputs": [
        {
          "indexed": false,
          "internalType": "address",
          "name": "",
          "type": "address"
        },
        {
          "indexed": false,
          "internalType": "uint256",
          "name": "",
          "type": "uint256"
        }
      ],
      "name": "Stake",
      "type": "event"
    },
    {
      "inputs": [
        {
          "internalType": "address",
          "name": "",
          "type": "address"
        }
      ],
      "name": "balances",
      "outputs": [
        {
          "internalType": "uint256",
          "name": "",
          "type": "uint256"
        }
      ],
      "stateMutability": "view",
      "type": "function"
    },
    {
      "inputs": [],
      "name": "deadline",
      "outputs": [
        {
          "internalType": "uint256",
          "name": "",
          "type": "uint256"
        }
      ],
      "stateMutability": "view",
      "type": "function"
    },
    {
      "inputs": [],
      "name": "exampleExternalContract",
      "outputs": [
        {
          "internalType": "contract ExampleExternalContract",
          "name": "",
          "type": "address"
        }
      ],
      "stateMutability": "view",
      "type": "function"
    },
    {
      "inputs": [],
      "name": "execute",
      "outputs": [],
      "stateMutability": "nonpayable",
      "type": "function"
    },
    {
      "inputs": [],
      "name": "executed",
      "outputs": [
        {
          "internalType": "bool",
          "name": "",
          "type": "bool"
        }
      ],
      "stateMutability": "view",
      "type": "function"
    },
    {
      "inputs": [],
      "name": "openForWithdraw",
      "outputs": [
        {
          "internalType": "bool",
          "name": "",
          "type": "bool"
        }
      ],
      "stateMutability": "view",
      "type": "function"
    },
    {
      "inputs": [],
      "name": "stake",
      "outputs": [],
      "stateMutability": "payable",
      "type": "function"
    },
    {
      "inputs": [],
      "name": "threshold",
      "outputs": [
        {
          "internalType": "uint256",
          "name": "",
          "type": "uint256"
        }
      ],
      "stateMutability": "view",
      "type": "function"
    },
    {
      "inputs": [],
      "name": "timeLeft",
      "outputs": [
        {
          "internalType": "uint256",
          "name": "",
          "type": "uint256"
        }
      ],
      "stateMutability": "view",
      "type": "function"
    },
    {
      "inputs": [],
      "name": "withdraw",
      "outputs": [],
      "stateMutability": "nonpayable",
      "type": "function"
    },
    {
      "stateMutability": "payable",
      "type": "receive"
    }
  ],
  "transactionHash": "0xa99ed1faf8f6056ce311556492ef79cf24a61381b97dd9886e56367379fff4bc",
  "args": [
    "0x2CbAA1B16B24a74bD5cd82b9fDC47BE61D91575A"
  ],
  "numDeployments": 1,
  "solcInputHash": "7289a4e0e1abe3fadc57df1efcb4a6b0",
  "bytecode": "0x60806040526004805461ffff1916905561001c426203f48061006f565b60065534801561002b57600080fd5b506040516109ce3803806109ce83398101604081905261004a91610096565b600080546001600160a01b0319166001600160a01b03929092169190911790556100c6565b8082018082111561009057634e487b7160e01b600052601160045260246000fd5b92915050565b6000602082840312156100a857600080fd5b81516001600160a01b03811681146100bf57600080fd5b9392505050565b6108f9806100d56000396000f3fe6080604052600436106100955760003560e01c80633ccfd60b116100595780633ccfd60b1461018d57806342cde4e8146101a257806361461954146101be5780639876a643146101d35780639f75f227146101f257600080fd5b80631300a6d1146100f057806327e235e31461011857806329dcb0cf1461014557806331a38c891461015b5780633a4b66f11461018557600080fd5b366100eb57306001600160a01b0316633a4b66f16040518163ffffffff1660e01b8152600401600060405180830381600087803b1580156100d557600080fd5b505af11580156100e9573d6000803e3d6000fd5b005b600080fd5b3480156100fc57600080fd5b5061010561022a565b6040519081526020015b60405180910390f35b34801561012457600080fd5b506101056101333660046107bc565b60016020526000908152604090205481565b34801561015157600080fd5b5061010560065481565b34801561016757600080fd5b506004546101759060ff1681565b604051901515815260200161010f565b6100e961024e565b34801561019957600080fd5b506100e96103a5565b3480156101ae57600080fd5b50610105670de0b6b3a764000081565b3480156101ca57600080fd5b506100e96104e3565b3480156101df57600080fd5b5060045461017590610100900460ff1681565b3480156101fe57600080fd5b50600054610212906001600160a01b031681565b6040516001600160a01b03909116815260200161010f565b6000600654421061023b5750600090565b426006546102499190610802565b905090565b60045460ff161580156102695750600454610100900460ff16155b61027257600080fd5b655af3107a400034116102d85760405162461bcd60e51b8152602060048201526024808201527f596f75206d757374206174206c656173742073656e6420302e303030312045546044820152634820212160e01b60648201526084015b60405180910390fd5b30600090815260016020526040812080543492906102f790849061081b565b9091555050604080513381523460208201527febedb8b3c678666e7f36970bc8f57abf6d8fa2e828c0da91ea5b75bf68ed101a910160405180910390a161033d33610747565b6103a35760408051602081019091523381526005805460018101825560009190915290517f036b6384b5eca791c62761152d0c79bb0604c104a5fb6f4eb0703f3154bb3db090910180546001600160a01b0319166001600160a01b039092169190911790555b565b60065442116103f15760405162461bcd60e51b81526020600482015260186024820152772232b0b23634b732903737ba103830b9b9903cb2ba17171760411b60448201526064016102cf565b60008054906101000a90046001600160a01b03166001600160a01b0316639d9a7fe96040518163ffffffff1660e01b8152600401602060405180830381865afa158015610442573d6000803e3d6000fd5b505050506040513d601f19601f82011682018060405250810190610466919061082e565b156104835760405162461bcd60e51b81526004016102cf90610850565b600454610100900460ff166104da5760405162461bcd60e51b815260206004820152601a60248201527f7769746864726177616c206e6f74206f70656e207965742e2e2e00000000000060448201526064016102cf565b6103a3336107b0565b600654421161052f5760405162461bcd60e51b81526020600482015260186024820152772232b0b23634b732903737ba103830b9b9903cb2ba17171760411b60448201526064016102cf565b60008054906101000a90046001600160a01b03166001600160a01b0316639d9a7fe96040518163ffffffff1660e01b8152600401602060405180830381865afa158015610580573d6000803e3d6000fd5b505050506040513d601f19601f820116820180604052508101906105a4919061082e565b156105c15760405162461bcd60e51b81526004016102cf90610850565b30600090815260016020526040902054670de0b6b3a764000010156106b85760045460ff16156106285760405162461bcd60e51b815260206004820152601260248201527120b63932b0b23c9032bc32b1baba32b2171760711b60448201526064016102cf565b600080543082526001602052604080832054815163522e117760e01b815291516001600160a01b039093169363522e11779391926004808201939182900301818588803b15801561067857600080fd5b505af115801561068c573d6000803e3d6000fd5b50506004805460ff191660019081179091553060009081526020919091526040812055506103a3915050565b600454610100900460ff16156107365760405162461bcd60e51b815260206004820152603c60248201527f506c6561736520776974686472617720796f75722066756e64732c206173207960448201527f6f7572207374616b65206973206c657373207468616e2031204554480000000060648201526084016102cf565b6004805461ff001916610100179055565b6000805b6005548110156107a757826001600160a01b03166005828154811061077257610772610894565b6000918252602090912001546001600160a01b0316036107955750600192915050565b8061079f816108aa565b91505061074b565b50600092915050565b806001600160a01b0316ff5b6000602082840312156107ce57600080fd5b81356001600160a01b03811681146107e557600080fd5b9392505050565b634e487b7160e01b600052601160045260246000fd5b81810381811115610815576108156107ec565b92915050565b80820180821115610815576108156107ec565b60006020828403121561084057600080fd5b815180151581146107e557600080fd5b60208082526024908201527f7374616b696e6720636f6e7472616374206578656375746520636f6d706c657460408201526332b2171760e11b606082015260800190565b634e487b7160e01b600052603260045260246000fd5b6000600182016108bc576108bc6107ec565b506001019056fea264697066735822122085de216ec1768e03c2a282858535e9d3b9381fbd94e0a970fe225963b905070c64736f6c63430008140033",
  "devdoc": {
    "kind": "dev",
    "methods": {},
    "version": 1
  },
  "userdoc": {
    "kind": "user",
    "methods": {},
    "version": 1
  },
  "storageLayout": {
    "storage": [
      {
        "astId": 19,
        "contract": "contracts/Staker.sol:Staker",
        "label": "exampleExternalContract",
        "offset": 0,
        "slot": "0",
        "type": "t_contract(ExampleExternalContract)12"
      },
      {
        "astId": 23,
        "contract": "contracts/Staker.sol:Staker",
        "label": "balances",
        "offset": 0,
        "slot": "1",
        "type": "t_mapping(t_address,t_uint256)"
      },
      {
        "astId": 27,
        "contract": "contracts/Staker.sol:Staker",
        "label": "withdrawal",
        "offset": 0,
        "slot": "2",
        "type": "t_mapping(t_address,t_bool)"
      },
      {
        "astId": 31,
        "contract": "contracts/Staker.sol:Staker",
        "label": "staked",
        "offset": 0,
        "slot": "3",
        "type": "t_mapping(t_address,t_bool)"
      },
      {
        "astId": 34,
        "contract": "contracts/Staker.sol:Staker",
        "label": "executed",
        "offset": 0,
        "slot": "4",
        "type": "t_bool"
      },
      {
        "astId": 37,
        "contract": "contracts/Staker.sol:Staker",
        "label": "openForWithdraw",
        "offset": 1,
        "slot": "4",
        "type": "t_bool"
      },
      {
        "astId": 44,
        "contract": "contracts/Staker.sol:Staker",
        "label": "stakers",
        "offset": 0,
        "slot": "5",
        "type": "t_array(t_struct(Stakers)40_storage)dyn_storage"
      },
      {
        "astId": 53,
        "contract": "contracts/Staker.sol:Staker",
        "label": "deadline",
        "offset": 0,
        "slot": "6",
        "type": "t_uint256"
      }
    ],
    "types": {
      "t_address": {
        "encoding": "inplace",
        "label": "address",
        "numberOfBytes": "20"
      },
      "t_array(t_struct(Stakers)40_storage)dyn_storage": {
        "base": "t_struct(Stakers)40_storage",
        "encoding": "dynamic_array",
        "label": "struct Staker.Stakers[]",
        "numberOfBytes": "32"
      },
      "t_bool": {
        "encoding": "inplace",
        "label": "bool",
        "numberOfBytes": "1"
      },
      "t_contract(ExampleExternalContract)12": {
        "encoding": "inplace",
        "label": "contract ExampleExternalContract",
        "numberOfBytes": "20"
      },
      "t_mapping(t_address,t_bool)": {
        "encoding": "mapping",
        "key": "t_address",
        "label": "mapping(address => bool)",
        "numberOfBytes": "32",
        "value": "t_bool"
      },
      "t_mapping(t_address,t_uint256)": {
        "encoding": "mapping",
        "key": "t_address",
        "label": "mapping(address => uint256)",
        "numberOfBytes": "32",
        "value": "t_uint256"
      },
      "t_struct(Stakers)40_storage": {
        "encoding": "inplace",
        "label": "struct Staker.Stakers",
        "members": [
          {
            "astId": 39,
            "contract": "contracts/Staker.sol:Staker",
            "label": "stakerAddress",
            "offset": 0,
            "slot": "0",
            "type": "t_address"
          }
        ],
        "numberOfBytes": "32"
      },
      "t_uint256": {
        "encoding": "inplace",
        "label": "uint256",
        "numberOfBytes": "32"
      }
    }
  }
}